:100A80002000456D70747900517561727465720053
:100A900048616C6600332F3474680046756C6C00D6
:0E0ABD00E4FFFE0FBF00010EBE04F8BFFCF503
:010ACB002208
:100AA000E4FFFEE4FDFC0DBD00010CED640B4C7099
:0C0AB000F50FBF00010EBE04EABFFCE71A
:010ABC002217
:0E0ACC008FA0C290C291D292120ABDC2922295
:0E0ADA008FA0D290C291D292120ABDC2922277
:1008000078097C007D007BFF7A0A79827E007F0672
:10081000120A5A780F7C007D007BFF7A0A79887E65
:10082000007F08120A5A78177C007D007BFF7A0A45
:1008300079907E007F05120A5A781C7C007D007B2F
:10084000FF7A0A79957E007F06120A5A78227C0088
:100850007D007BFF7A0A799B7E007F05120A5AC2CF
:10086000B4E4F5A07F38120ACC7F10120ACC7F0CBA
:10087000120ACC7F80120ACCC2B0C2B1C2B2C2B3DB
:1008800020B03720B13420B23120B32ED2B4E4F5F9
:1008900008740F2508F8E660097F80120ADA050857
:1008A00080EF7FC0120ACCE4F50874092508F8E649
:1008B000FF60CD120ADA050880F030B32EC2B4E42E
:1008C000F508740F2508F8E660097F80120ADA053A
:1008D0000880EF7FC0120ACCE4F50874222508F8DE
:1008E000E6FF609C120ADA050880F030B231D2B41B
:1008F000E4F508740F2508F8E660097F80120ADA2B
:10090000050880EF7FC0120ACCE4F508741C2508A6
:10091000F8E6FF7003020880120ADA050880ED305D
:10092000B131D2B4E4F508740F2508F8E660097F08
:1009300080120ADA050880EF7FC0120ACCE4F508BD
:1009400074172508F8E6FF7003020880120ADA051A
:100950000880ED20B003020880D2B4E4F508740FDB
:100960002508F8E660097F80120ADA050880EF7F23
:10097000C0120ACCE4F508740F2508F8E6FF7003EE
:0A098000020880120ADA050880ED73
:03000000020AE809
:0C0AE800787FE4F6D8FD75812602080036
:10098A00E709F608DFFA8046E709F208DFFA803E4F
:10099A0088828C83E709F0A3DFFA8032E309F6083C
:1009AA00DFFA8078E309F208DFFA807088828C83A4
:1009BA00E309F0A3DFFA806489828A83E0A3F60858
:1009CA00DFFA805889828A83E0A3F208DFFA804C32
:1009DA0080D280FA80C680D4806980F28033801009
:1009EA0080A680EA809A80A880DA80E280CA803372
:1009FA0089828A83ECFAE493A3C8C582C8CCC583EA
:100A0A00CCF0A3C8C582C8CCC583CCDFE9DEE780B9
:100A1A000D89828A83E493A3F608DFF9ECFAA9F038
:100A2A00EDFB2289828A83ECFAE0A3C8C582C8CC8E
:100A3A00C583CCF0A3C8C582C8CCC583CCDFEADEA7
:100A4A00E880DB89828A83E493A3F208DFF980CC09
:100A5A0088F0EF60010E4E60C388F0ED2402B40402
:100A6A000050B9F582EB2402B4040050AF232345A9
:060A7A0082239009DA73EB
:00000001FF
